:1009A900758901758CFC758A66D28C308DFDC28D76
:0309B900C28C22CB
:1001500001060B10161B20252A2F34393E44494E28
:1001600053585D62676C72777C81868B90959AA0FC
:04017000A5AAAFB3DA
:10096600ABFF8590F0900100E582B4240280097403
:100976005093A3B5F0F280047BFF8006AB00E582BE
:0309860014FE223A
:1008A900BBFF028031EE900000B400028014B40A4C
:1008B900028014B414028014B41E02801414058238
:1008C90080E7758300800F758301800A7583028034
:0708D9000575830380002276
:10098900C2B4C2B5C2B68500A075A03831E975A058
:100999000831E975A00131E975A00C31E91100228E
:0300000002089162
:020003000F32BA
:020013001F329A
:100891007590FF75A885D28AD2887F193189316612
:0808A10031E031CF80F880FE48
:0A0186003031323334353637383962
:0909E00011A9311211E0313C2291
:0909E900D2B631A9B2B631A9223F
:10080000D2B475A05431E975A04531E975A04D31D8
:10081000E975A05031E975A04531E975A05231E97B
:1008200075A04131E975A05431E975A05531E975DC
:10083000A05231E975A04531E975A03A31E9C2B459
:1008400075A0C031E9D2B475A05431E975A0523118
:10085000E975A04531E975A04631E975A03A31E95D
:010860002275
:10091200C2B475A08C31E9E5838582F0D2B4E58357
:100922008582F0D2B490018693F5A031E9E5F09387
:0A093200F5A031E975A0DF31E922DC
:1008E000EF900000B400028014B40A028014B41423
:1008F000028014B41E02801414058280E775830000
:10090000800F758301800A758302800575830380DB
:020910000022C3
:10093C00C2B475A0CC31E9E5838582F0D2B4E583ED
:10094C008582F0D2B490018693F5A031E9E5F0935D
:0A095C00F5A031E975A0DF31E922B2
:1009CF00EFDF028008DEFA8000D2B08002C2B0FFF3
:0109DF0022F5
:1009BC00758901758CFF758AFFD28C308DFDC28DC7
:0309CC00C28C22B8
:00000001FF
