:1009D700AF907E007D017C00EF64B370037F23221C
:1009E700E4FBFAEDB50709ECB50605AF03AE022245
:1009F700EB64034A6018EB640C4A6012EB64154A17
:100A0700600CEB641E4A6006EB64224A70047406AD
:100A1700800274052DFDE43CFC0BBB00010AEB646E
:070A2700244A70BFE4FEFF4A
:010A2E0022A5
:100B8F00758901758CFC758A66D28C308DFDC28D8E
:030B9F00C28C22E3
:0E0BC3008C0A8D0B120AD0AF0BAE0A020B018A
:100AD0008E0C8F0DC2B47F8C7E00120BA7D2B41285
:100AE0000B8FAE0CAF0D7C007D0A1208F6120B6E58
:100AF000120B8FAE0CAF0D120B637FDF7E00020B6B
:010B0000A74D
:100B01008E0C8F0DC2B47FCC7E00120BA7D2B41213
:100B11000B8FAE0CAF0D7C007D0A1208F6120B6E26
:100B2100120B8FAE0CAF0D120B637FDF7E00020B39
:010B3100A71C
:0B0B63007C007D0A1208F6AE04AF050E
:0C0B6E00D2B4EF2430FFE43EFE020BA7DF
:100B7A003808010C54454D50455241545552453A96
:050B8A00545245463AFB
:0F0BB400C2B4C2B5C2B6120B32120A6B020A2FBC
:050BA200F8E6FF7E00F3
:0D0BA7008FA0120B8FD2B6120B8FB2B622A8
:100B3200780C7C007D007BFF7A0B797A7E007F0443
:100B42001208D0E4F50AF50B740C250B120BA20562
:100B52000BE50B7002050AC39404E50A940040E811
:010B62002270
:100A6B00780A7C007D007BFF7A0B797E7E007F0C01
:100A7B001208D0D2B4E4F516F517740A2517120B29
:100A8B00A20517E51770020516C3940CE516940022
:020A9B0040E831
:010A9D002236
:100A2F00780A7C007D007BFF7A0B798A7E007F0538
:100A3F001208D0C2B47FC07E00120BA7D2B4E4F567
:100A4F000FF510740A2510120BA20510E510700295
:0B0A5F00050FC39405E50F940040E86C
:010A6A002269
:040BF80002180019C6
:100A9E0075A885D288D28A120BB4120B8F1209D781
:100AAE008E088F09120B8FAD19AC18AF09AE081254
:100ABE000BC3120B8FAD19AC18AF09AE08120BEBAE
:020ACE0080D8CE
:03000300020BD11C
:0D0BD100C0E00519E51970020518D0E032EA
:03001300020BDEFF
:0D0BDE00C0E0E519151970021518D0E032BD
:0D0BEB00C3EF9DEE9C4003C2B022D2B022A9
:0300000002094BA7
:0C094B00787FE4F6D8FD7581190209924E
:10080000E709F608DFFA8046E709F208DFFA803EDA
:1008100088828C83E709F0A3DFFA8032E309F608C7
:10082000DFFA8078E309F208DFFA807088828C832F
:10083000E309F0A3DFFA806489828A83E0A3F608E3
:10084000DFFA805889828A83E0A3F208DFFA804CBD
:1008500080D280FA80C680D4806980F28033801094
:1008600080A680EA809A80A880DA80E280CA8033FD
:1008700089828A83ECFAE493A3C8C582C8CCC58375
:10088000CCF0A3C8C582C8CCC583CCDFE9DEE78045
:100890000D89828A83E493A3F608DFF9ECFAA9F0C4
:1008A000EDFB2289828A83ECFAE0A3C8C582C8CC1A
:1008B000C583CCF0A3C8C582C8CCC583CCDFEADE33
:1008C000E880DB89828A83E493A3F208DFF980CC95
:1008D00088F0EF60010E4E60C388F0ED2402B4048E
:1008E0000050B9F582EB2402B4040050AF23234535
:0608F00082239008507302
:1008F600BC000BBE0029EF8DF084FFADF022E4CCE6
:10090600F875F008EF2FFFEE33FEEC33FCEE9DECAE
:10091600984005FCEE9DFE0FD5F0E9E4CEFD22EDF4
:10092600F8F5F0EE8420D21CFEADF075F008EF2F3E
:10093600FFED33FD4007985006D5F0F222C398FD2F
:050946000FD5F0EA22CC
:10095700020A9EE493A3F8E493A34003F68001F20E
:1009670008DFF48029E493A3F85407240CC8C333A1
:10097700C4540F4420C8834004F456800146F6DF70
:10098700E4800B0102040810204080900BF8E47EFD
:10099700019360BCA3FF543F30E509541FFEE49365
:1009A700A360010ECF54C025E060A840B8E493A32C
:1009B700FAE493A3F8E493A3C8C582C8CAC583CA57
:1009C700F0A3C8C582C8CAC583CADFE9DEE780BE0F
:010BFC0000F8
:00000001FF
